{"abi":[{"type":"constructor","inputs":[{"name":"_realityETH","type":"address","internalType":"address"},{"name":"_arbitrator","type":"address","internalType":"address"},{"name":"_minBond","type":"uint256","internalType":"uint256"},{"name":"_timeout","type":"uint32","internalType":"uint32"}],"stateMutability":"nonpayable"},{"type":"function","name":"arbitrator","inputs":[],"outputs":[{"name":"","type":"address","internalType":"address"}],"stateMutability":"view"},{"type":"function","name":"assertSpecInvalid","inputs":[{"name":"ipfs","type":"string","internalType":"string"}],"outputs":[],"stateMutability":"payable"},{"type":"function","name":"assertSpecInvalidByHash","inputs":[{"name":"specID","type":"bytes32","internalType":"bytes32"}],"outputs":[],"stateMutability":"payable"},{"type":"function","name":"assertSpecValid","inputs":[{"name":"ipfs","type":"string","internalType":"string"}],"outputs":[],"stateMutability":"payable"},{"type":"function","name":"assertSpecValidByHash","inputs":[{"name":"specID","type":"bytes32","internalType":"bytes32"}],"outputs":[],"stateMutability":"payable"},{"type":"function","name":"createSpec","inputs":[{"name":"ipfs","type":"string","internalType":"string"}],"outputs":[],"stateMutability":"payable"},{"type":"function","name":"getCreatedTimestamp","inputs":[{"name":"ipfs","type":"string","internalType":"string"}],"outputs":[{"name":"","type":"uint64","internalType":"uint64"}],"stateMutability":"view"},{"type":"function","name":"getCreatedTimestampByHash","inputs":[{"name":"id","type":"bytes32","internalType":"bytes32"}],"outputs":[{"name":"","type":"uint64","internalType":"uint64"}],"stateMutability":"view"},{"type":"function","name":"getIPFS","inputs":[{"name":"ipfs","type":"string","internalType":"string"}],"outputs":[{"name":"","type":"string","internalType":"string"}],"stateMutability":"view"},{"type":"function","name":"getIPFSByHash","inputs":[{"name":"id","type":"bytes32","internalType":"bytes32"}],"outputs":[{"name":"","type":"string","internalType":"string"}],"stateMutability":"view"},{"type":"function","name":"getQuestionId","inputs":[{"name":"ipfs","type":"string","internalType":"string"}],"outputs":[{"name":"","type":"bytes32","internalType":"bytes32"}],"stateMutability":"view"},{"type":"function","name":"getQuestionIdByHash","inputs":[{"name":"id","type":"bytes32","internalType":"bytes32"}],"outputs":[{"name":"","type":"bytes32","internalType":"bytes32"}],"stateMutability":"view"},{"type":"function","name":"getStatus","inputs":[{"name":"ipfs","type":"string","internalType":"string"}],"outputs":[{"name":"","type":"uint8","internalType":"enum KaiSign.Status"}],"stateMutability":"view"},{"type":"function","name":"getStatusByHash","inputs":[{"name":"id","type":"bytes32","internalType":"bytes32"}],"outputs":[{"name":"","type":"uint8","internalType":"enum KaiSign.Status"}],"stateMutability":"view"},{"type":"function","name":"handleResult","inputs":[{"name":"ipfs","type":"string","internalType":"string"}],"outputs":[],"stateMutability":"nonpayable"},{"type":"function","name":"handleResultByHash","inputs":[{"name":"specID","type":"bytes32","internalType":"bytes32"}],"outputs":[],"stateMutability":"nonpayable"},{"type":"function","name":"isAccepted","inputs":[{"name":"ipfs","type":"string","internalType":"string"}],"outputs":[{"name":"","type":"bool","internalType":"bool"}],"stateMutability":"view"},{"type":"function","name":"isAcceptedByHash","inputs":[{"name":"id","type":"bytes32","internalType":"bytes32"}],"outputs":[{"name":"","type":"bool","internalType":"bool"}],"stateMutability":"view"},{"type":"function","name":"minBond","inputs":[],"outputs":[{"name":"","type":"uint256","internalType":"uint256"}],"stateMutability":"view"},{"type":"function","name":"proposeSpec","inputs":[{"name":"ipfs","type":"string","internalType":"string"}],"outputs":[],"stateMutability":"payable"},{"type":"function","name":"proposeSpecByHash","inputs":[{"name":"specID","type":"bytes32","internalType":"bytes32"}],"outputs":[],"stateMutability":"payable"},{"type":"function","name":"realityETH","inputs":[],"outputs":[{"name":"","type":"address","internalType":"address"}],"stateMutability":"view"},{"type":"function","name":"specs","inputs":[{"name":"","type":"bytes32","internalType":"bytes32"}],"outputs":[{"name":"createdTimestamp","type":"uint64","internalType":"uint64"},{"name":"status","type":"uint8","internalType":"enum KaiSign.Status"},{"name":"ipfs","type":"string","internalType":"string"},{"name":"questionId","type":"bytes32","internalType":"bytes32"}],"stateMutability":"view"},{"type":"function","name":"templateId","inputs":[],"outputs":[{"name":"","type":"uint256","internalType":"uint256"}],"stateMutability":"view"},{"type":"function","name":"timeout","inputs":[],"outputs":[{"name":"","type":"uint32","internalType":"uint32"}],"stateMutability":"view"},{"type":"event","name":"LogAssertSpecInvalid","inputs":[{"name":"user","type":"address","indexed":true,"internalType":"address"},{"name":"specID","type":"bytes32","indexed":false,"internalType":"bytes32"},{"name":"questionId","type":"bytes32","indexed":false,"internalType":"bytes32"},{"name":"bond","type":"uint256","indexed":false,"internalType":"uint256"}],"anonymous":false},{"type":"event","name":"LogAssertSpecValid","inputs":[{"name":"user","type":"address","indexed":true,"internalType":"address"},{"name":"specID","type":"bytes32","indexed":false,"internalType":"bytes32"},{"name":"questionId","type":"bytes32","indexed":false,"internalType":"bytes32"},{"name":"bond","type":"uint256","indexed":false,"internalType":"uint256"}],"anonymous":false},{"type":"event","name":"LogCreateSpec","inputs":[{"name":"user","type":"address","indexed":true,"internalType":"address"},{"name":"specID","type":"bytes32","indexed":false,"internalType":"bytes32"},{"name":"ipfs","type":"string","indexed":false,"internalType":"string"}],"anonymous":false},{"type":"event","name":"LogHandleResult","inputs":[{"name":"specID","type":"bytes32","indexed":false,"internalType":"bytes32"},{"name":"isAccepted","type":"bool","indexed":false,"internalType":"bool"}],"anonymous":false},{"type":"event","name":"LogProposeSpec","inputs":[{"name":"user","type":"address","indexed":true,"internalType":"address"},{"name":"specID","type":"bytes32","indexed":false,"internalType":"bytes32"},{"name":"questionId","type":"bytes32","indexed":false,"internalType":"bytes32"},{"name":"bond","type":"uint256","indexed":false,"internalType":"uint256"}],"anonymous":false}],"bytecode":{"object":"0x608060405234801561000f575f5ffd5b506040516114a03803806114a083398101604081905261002e91610154565b600180546001600160a01b038087166001600160a01b0319928316811790935560028054918716919092161790555f8390556004805463ffffffff841663ffffffff199091161781556040516383bf460960e01b81526383bf4609916100ec91016020808252603c908201527f7b227469746c65223a202249732074686520455243373733302073706563202560408201527f7320636f72726563743f222c202274797065223a2022626f6f6c227d00000000606082015260800190565b6020604051808303815f875af1158015610108573d5f5f3e3d5ffd5b505050506040513d601f19601f8201168201806040525081019061012c91906101a9565b600355506101c092505050565b80516001600160a01b038116811461014f575f5ffd5b919050565b5f5f5f5f60808587031215610167575f5ffd5b61017085610139565b935061017e60208601610139565b60408601516060870151919450925063ffffffff8116811461019e575f5ffd5b939692955090935050565b5f602082840312156101b9575f5ffd5b5051919050565b6112d3806101cd5f395ff3fe608060405260043610610161575f3560e01c806370dea79a116100cd578063986a2dfc11610087578063c246eb8011610062578063c246eb801461046e578063e1c74e2c14610481578063e90ffed814610494578063f7547d8f146104b3575f5ffd5b8063986a2dfc14610400578063a6c32b161461042c578063b08c56701461043f575f5ffd5b806370dea79a1461031c57806373385f261461034d5780637aa77f2914610399578063806339da146103ae5780638203262f146103cd578063831518b7146103ec575f5ffd5b8063572106f21161011e578063572106f2146102455780635aeeb865146102815780635d21a3df14610294578063635ae704146102b357806366aab31c146102d25780636cc6cde1146102e5575f5ffd5b8063020d1f6d14610165578063111a0a59146101b05780631d14d204146101df57806322b05ed214610200578063301d205d1461021f57806353a50bcc14610232575b5f5ffd5b348015610170575f5ffd5b5061019a61017f366004610ebc565b5f90815260056020526040902054600160401b900460ff1690565b6040516101a79190610f07565b60405180910390f35b3480156101bb575f5ffd5b506101cf6101ca366004610ebc565b6104d2565b60405190151581526020016101a7565b3480156101ea575f5ffd5b506101fe6101f9366004610ebc565b610505565b005b34801561020b575f5ffd5b5061019a61021a366004610f15565b61063a565b6101fe61022d366004610f15565b610676565b6101fe610240366004610ebc565b61069a565b348015610250575f5ffd5b5061027361025f366004610ebc565b5f9081526005602052604090206002015490565b6040519081526020016101a7565b6101fe61028f366004610f15565b6107a6565b34801561029f575f5ffd5b506102736102ae366004610f15565b6107c6565b3480156102be575f5ffd5b506101fe6102cd366004610f15565b6107f9565b6101fe6102e0366004610ebc565b610819565b3480156102f0575f5ffd5b50600254610304906001600160a01b031681565b6040516001600160a01b0390911681526020016101a7565b348015610327575f5ffd5b506004546103389063ffffffff1681565b60405163ffffffff90911681526020016101a7565b348015610358575f5ffd5b50610381610367366004610ebc565b5f908152600560205260409020546001600160401b031690565b6040516001600160401b0390911681526020016101a7565b3480156103a4575f5ffd5b5061027360035481565b3480156103b9575f5ffd5b506101cf6103c8366004610f15565b61094c565b3480156103d8575f5ffd5b50600154610304906001600160a01b031681565b3480156103f7575f5ffd5b506102735f5481565b34801561040b575f5ffd5b5061041f61041a366004610f15565b61099d565b6040516101a79190610faf565b6101fe61043a366004610f15565b610a5e565b34801561044a575f5ffd5b5061045e610459366004610ebc565b610c0a565b6040516101a79493929190610fc8565b6101fe61047c366004610ebc565b610cc8565b6101fe61048f366004610f15565b610dc1565b34801561049f575f5ffd5b5061041f6104ae366004610ebc565b610de1565b3480156104be575f5ffd5b506103816104cd366004610f15565b610e83565b5f60015f83815260056020526040902054600160401b900460ff1660028111156104fe576104fe610ed3565b1492915050565b6001545f8281526005602052604080822060020154905163684e62bf60e11b815291926001600160a01b03169163d09cc57e916105489160040190815260200190565b602060405180830381865afa158015610563573d5f5f3e3d5ffd5b505050506040513d601f19601f820116820180604052508101906105879190611007565b90506001811461059857600261059b565b60015b5f838152600560205260409020805468ff00000000000000001916600160401b8360028111156105cd576105cd610ed3565b02179055507f52e2ad468f631d9015ea0c07b06523263b3eaf6022ed892afc28a5cbda41a8608260015f85815260056020526040902054600160401b900460ff16600281111561061f5761061f610ed3565b60408051938452911460208301520160405180910390a15050565b5f5f838360405161064c92919061101e565b60408051918290039091205f90815260056020522054600160401b900460ff169150505b92915050565b610696828260405161068992919061101e565b6040518091039020610cc8565b5050565b5f818152600560205260409020546001600160401b03166106d65760405162461bcd60e51b81526004016106cd9061102d565b60405180910390fd5b5f8181526005602052604080822060020154600180549251630223d82760e31b81526004810183905260248101919091526044810193909352336064840152916001600160a01b039091169063111ec1389034906084015f604051808303818588803b158015610744575f5ffd5b505af1158015610756573d5f5f3e3d5ffd5b5050604080518681526020810186905234918101919091523393507f268661df202e264b591fc38ab7c85f5b1187014005015b92ff62463acf78cfcc925060600190505b60405180910390a25050565b61069682826040516107b992919061101e565b604051809103902061069a565b5f5f83836040516107d892919061101e565b60408051918290039091205f90815260056020522060020154949350505050565b610696828260405161080c92919061101e565b6040518091039020610505565b5f818152600560205260409020546001600160401b031661084c5760405162461bcd60e51b81526004016106cd9061102d565b600180546003545f848152600560205260408082206002546004805485549451631212e4f160e21b81526001600160a01b039889169963484b93c4996108a99998969091019694169463ffffffff9092169391928392910161108f565b6020604051808303815f875af11580156108c5573d5f5f3e3d5ffd5b505050506040513d601f19601f820116820180604052508101906108e99190611007565b5f82815260056020908152604091829020600201839055815184815290810192909252349082015233907f1e93ff747c6d431ce627169ace0d7af61b428a3ca59c1b2947aa8f668484360d9060600160405180910390a26109498161069a565b50565b5f5f838360405161095e92919061101e565b604051908190039020905060015f82815260056020526040902054600160401b900460ff16600281111561099457610994610ed3565b14949350505050565b60605f83836040516109b092919061101e565b6040518091039020905060055f8281526020019081526020015f2060010180546109d990611057565b80601f0160208091040260200160405190810160405280929190818152602001828054610a0590611057565b8015610a505780601f10610a2757610100808354040283529160200191610a50565b820191905f5260205f20905b815481529060010190602001808311610a3357829003601f168201915b505050505091505092915050565b5f8282604051610a6f92919061101e565b60408051918290039091205f818152600560205291909120549091506001600160401b031615610ad45760405162461bcd60e51b815260206004820152601060248201526f105b1c9958591e481c1c9bdc1bdcd95960821b60448201526064016106cd565b60408051608081019091526001600160401b0342168152602081015f815260200184848080601f0160208091040260200160405190810160405280939291908181526020018383808284375f92018290525093855250505060209182018190528381526005825260409020825181546001600160401b0390911667ffffffffffffffff19821681178355928401519192839168ffffffffffffffffff191617600160401b836002811115610b8a57610b8a610ed3565b021790555060408201516001820190610ba390826111ae565b5060608201518160020155905050336001600160a01b03167f1691f1a84baa4185654bd1ed7fc88ae86f535c6185ad022f5d2a0472de67d5b0828585604051610bee93929190611268565b60405180910390a23415610c0557610c0581610819565b505050565b60056020525f9081526040902080546001820180546001600160401b03831693600160401b90930460ff16929190610c4190611057565b80601f0160208091040260200160405190810160405280929190818152602001828054610c6d90611057565b8015610cb85780601f10610c8f57610100808354040283529160200191610cb8565b820191905f5260205f20905b815481529060010190602001808311610c9b57829003601f168201915b5050505050908060020154905084565b5f818152600560205260409020546001600160401b0316610cfb5760405162461bcd60e51b81526004016106cd9061102d565b5f81815260056020526040808220600201546001549151630223d82760e31b815260048101829052602481018490526044810193909352336064840152916001600160a01b039091169063111ec1389034906084015f604051808303818588803b158015610d67575f5ffd5b505af1158015610d79573d5f5f3e3d5ffd5b5050604080518681526020810186905234918101919091523393507f2474bd876fc3533b4940e9075dc8b4b8b082c1205e0edf9e8664f1b97e48af059250606001905061079a565b6106968282604051610dd492919061101e565b6040518091039020610819565b5f818152600560205260409020600101805460609190610e0090611057565b80601f0160208091040260200160405190810160405280929190818152602001828054610e2c90611057565b8015610e775780601f10610e4e57610100808354040283529160200191610e77565b820191905f5260205f20905b815481529060010190602001808311610e5a57829003601f168201915b50505050509050919050565b5f5f8383604051610e9592919061101e565b60408051918290039091205f908152600560205220546001600160401b0316949350505050565b5f60208284031215610ecc575f5ffd5b5035919050565b634e487b7160e01b5f52602160045260245ffd5b60038110610f0357634e487b7160e01b5f52602160045260245ffd5b9052565b602081016106708284610ee7565b5f5f60208385031215610f26575f5ffd5b82356001600160401b03811115610f3b575f5ffd5b8301601f81018513610f4b575f5ffd5b80356001600160401b03811115610f60575f5ffd5b856020828401011115610f71575f5ffd5b6020919091019590945092505050565b5f81518084528060208401602086015e5f602082860101526020601f19601f83011685010191505092915050565b602081525f610fc16020830184610f81565b9392505050565b6001600160401b0385168152610fe16020820185610ee7565b608060408201525f610ff66080830185610f81565b905082606083015295945050505050565b5f60208284031215611017575f5ffd5b5051919050565b818382375f9101908152919050565b60208082526010908201526f139bdd081c1c9bdc1bdcd959081e595d60821b604082015260600190565b600181811c9082168061106b57607f821691505b60208210810361108957634e487b7160e01b5f52602260045260245ffd5b50919050565b87815260e060208201525f5f88546110a681611057565b8060e0860152600182165f81146110c457600181146110e257611115565b60ff19831661010087015261010082151560051b8701019350611115565b8b5f5260205f205f5b8381101561110b57815488820161010001526001909101906020016110eb565b8701610100019450505b5050506001600160a01b039790971660408301525063ffffffff948516606082015292909316608083015260a082015260c0015292915050565b634e487b7160e01b5f52604160045260245ffd5b601f821115610c0557805f5260205f20601f840160051c810160208510156111885750805b601f840160051c820191505b818110156111a7575f8155600101611194565b5050505050565b81516001600160401b038111156111c7576111c761114f565b6111db816111d58454611057565b84611163565b6020601f82116001811461120d575f83156111f65750848201515b5f19600385901b1c1916600184901b1784556111a7565b5f84815260208120601f198516915b8281101561123c578785015182556020948501946001909201910161121c565b508482101561125957868401515f19600387901b60f8161c191681555b50505050600190811b01905550565b83815260406020820152816040820152818360608301375f818301606090810191909152601f909201601f191601019291505056fea2646970667358221220b9e405086bbea48ed274d46e1a567a5b60f3bf937577e33446837abb2756581564736f6c634300081c0033","linkReferences":{}},"methodIdentifiers":{"arbitrator()":"6cc6cde1","assertSpecInvalid(string)":"301d205d","assertSpecInvalidByHash(bytes32)":"c246eb80","assertSpecValid(string)":"5aeeb865","assertSpecValidByHash(bytes32)":"53a50bcc","createSpec(string)":"a6c32b16","getCreatedTimestamp(string)":"f7547d8f","getCreatedTimestampByHash(bytes32)":"73385f26","getIPFS(string)":"986a2dfc","getIPFSByHash(bytes32)":"e90ffed8","getQuestionId(string)":"5d21a3df","getQuestionIdByHash(bytes32)":"572106f2","getStatus(string)":"22b05ed2","getStatusByHash(bytes32)":"020d1f6d","handleResult(string)":"635ae704","handleResultByHash(bytes32)":"1d14d204","isAccepted(string)":"806339da","isAcceptedByHash(bytes32)":"111a0a59","minBond()":"831518b7","proposeSpec(string)":"e1c74e2c","proposeSpecByHash(bytes32)":"66aab31c","realityETH()":"8203262f","specs(bytes32)":"b08c5670","templateId()":"7aa77f29","timeout()":"70dea79a"},"id":18}