{"abi":[{"type":"constructor","inputs":[],"stateMutability":"nonpayable"},{"type":"function","name":"arbitrator_question_fees","inputs":[{"name":"","type":"address","internalType":"address"}],"outputs":[{"name":"","type":"uint256","internalType":"uint256"}],"stateMutability":"view"},{"type":"function","name":"askQuestion","inputs":[{"name":"template_id","type":"uint256","internalType":"uint256"},{"name":"question","type":"string","internalType":"string"},{"name":"arbitrator","type":"address","internalType":"address"},{"name":"timeout","type":"uint32","internalType":"uint32"},{"name":"opening_ts","type":"uint32","internalType":"uint32"},{"name":"nonce","type":"uint256","internalType":"uint256"}],"outputs":[{"name":"","type":"bytes32","internalType":"bytes32"}],"stateMutability":"payable"},{"type":"function","name":"askQuestionWithMinBond","inputs":[{"name":"template_id","type":"uint256","internalType":"uint256"},{"name":"question","type":"string","internalType":"string"},{"name":"arbitrator","type":"address","internalType":"address"},{"name":"timeout","type":"uint32","internalType":"uint32"},{"name":"opening_ts","type":"uint32","internalType":"uint32"},{"name":"nonce","type":"uint256","internalType":"uint256"},{"name":"min_bond","type":"uint256","internalType":"uint256"}],"outputs":[{"name":"","type":"bytes32","internalType":"bytes32"}],"stateMutability":"payable"},{"type":"function","name":"assignWinnerAndSubmitAnswerByArbitrator","inputs":[{"name":"question_id","type":"bytes32","internalType":"bytes32"},{"name":"answer","type":"bytes32","internalType":"bytes32"},{"name":"payee_if_wrong","type":"address","internalType":"address"},{"name":"last_history_hash","type":"bytes32","internalType":"bytes32"},{"name":"last_answer_or_commitment_id","type":"bytes32","internalType":"bytes32"},{"name":"last_answerer","type":"address","internalType":"address"}],"outputs":[],"stateMutability":"nonpayable"},{"type":"function","name":"balanceOf","inputs":[{"name":"","type":"address","internalType":"address"}],"outputs":[{"name":"","type":"uint256","internalType":"uint256"}],"stateMutability":"view"},{"type":"function","name":"cancelArbitration","inputs":[{"name":"question_id","type":"bytes32","internalType":"bytes32"}],"outputs":[],"stateMutability":"nonpayable"},{"type":"function","name":"claimMultipleAndWithdrawBalance","inputs":[{"name":"question_ids","type":"bytes32[]","internalType":"bytes32[]"},{"name":"lengths","type":"uint256[]","internalType":"uint256[]"},{"name":"hist_hashes","type":"bytes32[]","internalType":"bytes32[]"},{"name":"addrs","type":"address[]","internalType":"address[]"},{"name":"bonds","type":"uint256[]","internalType":"uint256[]"},{"name":"answers","type":"bytes32[]","internalType":"bytes32[]"}],"outputs":[],"stateMutability":"nonpayable"},{"type":"function","name":"claimWinnings","inputs":[{"name":"question_id","type":"bytes32","internalType":"bytes32"},{"name":"history_hashes","type":"bytes32[]","internalType":"bytes32[]"},{"name":"addrs","type":"address[]","internalType":"address[]"},{"name":"bonds","type":"uint256[]","internalType":"uint256[]"},{"name":"answers","type":"bytes32[]","internalType":"bytes32[]"}],"outputs":[],"stateMutability":"nonpayable"},{"type":"function","name":"commitments","inputs":[{"name":"","type":"bytes32","internalType":"bytes32"}],"outputs":[{"name":"reveal_ts","type":"uint32","internalType":"uint32"},{"name":"is_revealed","type":"bool","internalType":"bool"},{"name":"revealed_answer","type":"bytes32","internalType":"bytes32"}],"stateMutability":"view"},{"type":"function","name":"createTemplate","inputs":[{"name":"content","type":"string","internalType":"string"}],"outputs":[{"name":"","type":"uint256","internalType":"uint256"}],"stateMutability":"nonpayable"},{"type":"function","name":"createTemplateAndAskQuestion","inputs":[{"name":"content","type":"string","internalType":"string"},{"name":"question","type":"string","internalType":"string"},{"name":"arbitrator","type":"address","internalType":"address"},{"name":"timeout","type":"uint32","internalType":"uint32"},{"name":"opening_ts","type":"uint32","internalType":"uint32"},{"name":"nonce","type":"uint256","internalType":"uint256"}],"outputs":[{"name":"","type":"bytes32","internalType":"bytes32"}],"stateMutability":"payable"},{"type":"function","name":"fundAnswerBounty","inputs":[{"name":"question_id","type":"bytes32","internalType":"bytes32"}],"outputs":[],"stateMutability":"payable"},{"type":"function","name":"getArbitrator","inputs":[{"name":"question_id","type":"bytes32","internalType":"bytes32"}],"outputs":[{"name":"","type":"address","internalType":"address"}],"stateMutability":"view"},{"type":"function","name":"getBestAnswer","inputs":[{"name":"question_id","type":"bytes32","internalType":"bytes32"}],"outputs":[{"name":"","type":"bytes32","internalType":"bytes32"}],"stateMutability":"view"},{"type":"function","name":"getBond","inputs":[{"name":"question_id","type":"bytes32","internalType":"bytes32"}],"outputs":[{"name":"","type":"uint256","internalType":"uint256"}],"stateMutability":"view"},{"type":"function","name":"getBounty","inputs":[{"name":"question_id","type":"bytes32","internalType":"bytes32"}],"outputs":[{"name":"","type":"uint256","internalType":"uint256"}],"stateMutability":"view"},{"type":"function","name":"getContentHash","inputs":[{"name":"question_id","type":"bytes32","internalType":"bytes32"}],"outputs":[{"name":"","type":"bytes32","internalType":"bytes32"}],"stateMutability":"view"},{"type":"function","name":"getFinalAnswer","inputs":[{"name":"question_id","type":"bytes32","internalType":"bytes32"}],"outputs":[{"name":"","type":"bytes32","internalType":"bytes32"}],"stateMutability":"view"},{"type":"function","name":"getFinalAnswerIfMatches","inputs":[{"name":"question_id","type":"bytes32","internalType":"bytes32"},{"name":"content_hash","type":"bytes32","internalType":"bytes32"},{"name":"arbitrator","type":"address","internalType":"address"},{"name":"min_timeout","type":"uint32","internalType":"uint32"},{"name":"min_bond","type":"uint256","internalType":"uint256"}],"outputs":[{"name":"","type":"bytes32","internalType":"bytes32"}],"stateMutability":"view"},{"type":"function","name":"getFinalizeTS","inputs":[{"name":"question_id","type":"bytes32","internalType":"bytes32"}],"outputs":[{"name":"","type":"uint32","internalType":"uint32"}],"stateMutability":"view"},{"type":"function","name":"getHistoryHash","inputs":[{"name":"question_id","type":"bytes32","internalType":"bytes32"}],"outputs":[{"name":"","type":"bytes32","internalType":"bytes32"}],"stateMutability":"view"},{"type":"function","name":"getMinBond","inputs":[{"name":"question_id","type":"bytes32","internalType":"bytes32"}],"outputs":[{"name":"","type":"uint256","internalType":"uint256"}],"stateMutability":"view"},{"type":"function","name":"getOpeningTS","inputs":[{"name":"question_id","type":"bytes32","internalType":"bytes32"}],"outputs":[{"name":"","type":"uint32","internalType":"uint32"}],"stateMutability":"view"},{"type":"function","name":"getTimeout","inputs":[{"name":"question_id","type":"bytes32","internalType":"bytes32"}],"outputs":[{"name":"","type":"uint32","internalType":"uint32"}],"stateMutability":"view"},{"type":"function","name":"isFinalized","inputs":[{"name":"question_id","type":"bytes32","internalType":"bytes32"}],"outputs":[{"name":"","type":"bool","internalType":"bool"}],"stateMutability":"view"},{"type":"function","name":"isPendingArbitration","inputs":[{"name":"question_id","type":"bytes32","internalType":"bytes32"}],"outputs":[{"name":"","type":"bool","internalType":"bool"}],"stateMutability":"view"},{"type":"function","name":"isSettledTooSoon","inputs":[{"name":"question_id","type":"bytes32","internalType":"bytes32"}],"outputs":[{"name":"","type":"bool","internalType":"bool"}],"stateMutability":"view"},{"type":"function","name":"notifyOfArbitrationRequest","inputs":[{"name":"question_id","type":"bytes32","internalType":"bytes32"},{"name":"requester","type":"address","internalType":"address"},{"name":"max_previous","type":"uint256","internalType":"uint256"}],"outputs":[],"stateMutability":"nonpayable"},{"type":"function","name":"question_claims","inputs":[{"name":"","type":"bytes32","internalType":"bytes32"}],"outputs":[{"name":"payee","type":"address","internalType":"address"},{"name":"last_bond","type":"uint256","internalType":"uint256"},{"name":"queued_funds","type":"uint256","internalType":"uint256"}],"stateMutability":"view"},{"type":"function","name":"questions","inputs":[{"name":"","type":"bytes32","internalType":"bytes32"}],"outputs":[{"name":"content_hash","type":"bytes32","internalType":"bytes32"},{"name":"arbitrator","type":"address","internalType":"address"},{"name":"opening_ts","type":"uint32","internalType":"uint32"},{"name":"timeout","type":"uint32","internalType":"uint32"},{"name":"finalize_ts","type":"uint32","internalType":"uint32"},{"name":"is_pending_arbitration","type":"bool","internalType":"bool"},{"name":"bounty","type":"uint256","internalType":"uint256"},{"name":"best_answer","type":"bytes32","internalType":"bytes32"},{"name":"history_hash","type":"bytes32","internalType":"bytes32"},{"name":"bond","type":"uint256","internalType":"uint256"},{"name":"min_bond","type":"uint256","internalType":"uint256"}],"stateMutability":"view"},{"type":"function","name":"reopenQuestion","inputs":[{"name":"template_id","type":"uint256","internalType":"uint256"},{"name":"question","type":"string","internalType":"string"},{"name":"arbitrator","type":"address","internalType":"address"},{"name":"timeout","type":"uint32","internalType":"uint32"},{"name":"opening_ts","type":"uint32","internalType":"uint32"},{"name":"nonce","type":"uint256","internalType":"uint256"},{"name":"min_bond","type":"uint256","internalType":"uint256"},{"name":"reopens_question_id","type":"bytes32","internalType":"bytes32"}],"outputs":[{"name":"","type":"bytes32","internalType":"bytes32"}],"stateMutability":"payable"},{"type":"function","name":"reopened_questions","inputs":[{"name":"","type":"bytes32","internalType":"bytes32"}],"outputs":[{"name":"","type":"bytes32","internalType":"bytes32"}],"stateMutability":"view"},{"type":"function","name":"reopener_questions","inputs":[{"name":"","type":"bytes32","internalType":"bytes32"}],"outputs":[{"name":"","type":"bool","internalType":"bool"}],"stateMutability":"view"},{"type":"function","name":"resultFor","inputs":[{"name":"question_id","type":"bytes32","internalType":"bytes32"}],"outputs":[{"name":"","type":"bytes32","internalType":"bytes32"}],"stateMutability":"view"},{"type":"function","name":"resultForOnceSettled","inputs":[{"name":"question_id","type":"bytes32","internalType":"bytes32"}],"outputs":[{"name":"","type":"bytes32","internalType":"bytes32"}],"stateMutability":"view"},{"type":"function","name":"setQuestionFee","inputs":[{"name":"fee","type":"uint256","internalType":"uint256"}],"outputs":[],"stateMutability":"nonpayable"},{"type":"function","name":"submitAnswer","inputs":[{"name":"question_id","type":"bytes32","internalType":"bytes32"},{"name":"answer","type":"bytes32","internalType":"bytes32"},{"name":"max_previous","type":"uint256","internalType":"uint256"}],"outputs":[],"stateMutability":"payable"},{"type":"function","name":"submitAnswerByArbitrator","inputs":[{"name":"question_id","type":"bytes32","internalType":"bytes32"},{"name":"answer","type":"bytes32","internalType":"bytes32"},{"name":"answerer","type":"address","internalType":"address"}],"outputs":[],"stateMutability":"nonpayable"},{"type":"function","name":"submitAnswerCommitment","inputs":[{"name":"question_id","type":"bytes32","internalType":"bytes32"},{"name":"answer_hash","type":"bytes32","internalType":"bytes32"},{"name":"max_previous","type":"uint256","internalType":"uint256"},{"name":"_answerer","type":"address","internalType":"address"}],"outputs":[],"stateMutability":"payable"},{"type":"function","name":"submitAnswerFor","inputs":[{"name":"question_id","type":"bytes32","internalType":"bytes32"},{"name":"answer","type":"bytes32","internalType":"bytes32"},{"name":"max_previous","type":"uint256","internalType":"uint256"},{"name":"answerer","type":"address","internalType":"address"}],"outputs":[],"stateMutability":"payable"},{"type":"function","name":"submitAnswerReveal","inputs":[{"name":"question_id","type":"bytes32","internalType":"bytes32"},{"name":"answer","type":"bytes32","internalType":"bytes32"},{"name":"nonce","type":"uint256","internalType":"uint256"},{"name":"bond","type":"uint256","internalType":"uint256"}],"outputs":[],"stateMutability":"nonpayable"},{"type":"function","name":"template_hashes","inputs":[{"name":"","type":"uint256","internalType":"uint256"}],"outputs":[{"name":"","type":"bytes32","internalType":"bytes32"}],"stateMutability":"view"},{"type":"function","name":"templates","inputs":[{"name":"","type":"uint256","internalType":"uint256"}],"outputs":[{"name":"","type":"uint256","internalType":"uint256"}],"stateMutability":"view"},{"type":"function","name":"withdraw","inputs":[],"outputs":[],"stateMutability":"nonpayable"},{"type":"event","name":"LogAnswerReveal","inputs":[{"name":"question_id","type":"bytes32","indexed":true,"internalType":"bytes32"},{"name":"user","type":"address","indexed":true,"internalType":"address"},{"name":"answer_hash","type":"bytes32","indexed":true,"internalType":"bytes32"},{"name":"answer","type":"bytes32","indexed":false,"internalType":"bytes32"},{"name":"nonce","type":"uint256","indexed":false,"internalType":"uint256"},{"name":"bond","type":"uint256","indexed":false,"internalType":"uint256"}],"anonymous":false},{"type":"event","name":"LogCancelArbitration","inputs":[{"name":"question_id","type":"bytes32","indexed":true,"internalType":"bytes32"}],"anonymous":false},{"type":"event","name":"LogClaim","inputs":[{"name":"question_id","type":"bytes32","indexed":true,"internalType":"bytes32"},{"name":"user","type":"address","indexed":true,"internalType":"address"},{"name":"amount","type":"uint256","indexed":false,"internalType":"uint256"}],"anonymous":false},{"type":"event","name":"LogFinalize","inputs":[{"name":"question_id","type":"bytes32","indexed":true,"internalType":"bytes32"},{"name":"answer","type":"bytes32","indexed":true,"internalType":"bytes32"}],"anonymous":false},{"type":"event","name":"LogFundAnswerBounty","inputs":[{"name":"question_id","type":"bytes32","indexed":true,"internalType":"bytes32"},{"name":"bounty_added","type":"uint256","indexed":false,"internalType":"uint256"},{"name":"bounty","type":"uint256","indexed":false,"internalType":"uint256"},{"name":"user","type":"address","indexed":true,"internalType":"address"}],"anonymous":false},{"type":"event","name":"LogMinimumBond","inputs":[{"name":"question_id","type":"bytes32","indexed":true,"internalType":"bytes32"},{"name":"min_bond","type":"uint256","indexed":false,"internalType":"uint256"}],"anonymous":false},{"type":"event","name":"LogNewAnswer","inputs":[{"name":"answer","type":"bytes32","indexed":false,"internalType":"bytes32"},{"name":"question_id","type":"bytes32","indexed":true,"internalType":"bytes32"},{"name":"history_hash","type":"bytes32","indexed":false,"internalType":"bytes32"},{"name":"user","type":"address","indexed":true,"internalType":"address"},{"name":"bond","type":"uint256","indexed":false,"internalType":"uint256"},{"name":"ts","type":"uint256","indexed":false,"internalType":"uint256"},{"name":"is_commitment","type":"bool","indexed":false,"internalType":"bool"}],"anonymous":false},{"type":"event","name":"LogNewQuestion","inputs":[{"name":"question_id","type":"bytes32","indexed":true,"internalType":"bytes32"},{"name":"user","type":"address","indexed":true,"internalType":"address"},{"name":"template_id","type":"uint256","indexed":false,"internalType":"uint256"},{"name":"question","type":"string","indexed":false,"internalType":"string"},{"name":"content_hash","type":"bytes32","indexed":true,"internalType":"bytes32"},{"name":"arbitrator","type":"address","indexed":false,"internalType":"address"},{"name":"timeout","type":"uint32","indexed":false,"internalType":"uint32"},{"name":"opening_ts","type":"uint32","indexed":false,"internalType":"uint32"},{"name":"nonce","type":"uint256","indexed":false,"internalType":"uint256"},{"name":"created","type":"uint256","indexed":false,"internalType":"uint256"}],"anonymous":false},{"type":"event","name":"LogNewTemplate","inputs":[{"name":"template_id","type":"uint256","indexed":true,"internalType":"uint256"},{"name":"user","type":"address","indexed":true,"internalType":"address"},{"name":"question_text","type":"string","indexed":false,"internalType":"string"}],"anonymous":false},{"type":"event","name":"LogNotifyOfArbitrationRequest","inputs":[{"name":"question_id","type":"bytes32","indexed":true,"internalType":"bytes32"},{"name":"user","type":"address","indexed":true,"internalType":"address"}],"anonymous":false},{"type":"event","name":"LogReopenQuestion","inputs":[{"name":"question_id","type":"bytes32","indexed":true,"internalType":"bytes32"},{"name":"reopened_question_id","type":"bytes32","indexed":true,"internalType":"bytes32"}],"anonymous":false},{"type":"event","name":"LogSetQuestionFee","inputs":[{"name":"arbitrator","type":"address","indexed":false,"internalType":"address"},{"name":"amount","type":"uint256","indexed":false,"internalType":"uint256"}],"anonymous":false},{"type":"event","name":"LogWithdraw","inputs":[{"name":"user","type":"address","indexed":true,"internalType":"address"},{"name":"amount","type":"uint256","indexed":false,"internalType":"uint256"}],"anonymous":false}],"bytecode":{"object":"0x60806040525f600155348015610013575f5ffd5b506100356040518060600160405280603f81526020016142c4603f91396100c3565b506100576040518060800160405280604f81526020016143a0604f91396100c3565b506100796040518060800160405280605a8152602001614346605a91396100c3565b5061009b6040518060800160405280605c8152602001614268605c91396100c3565b506100bd604051806080016040528060438152602001614303604391396100c3565b506101cb565b6001545f818152600260209081526040808320439055519192916100e99185910161015b565b60408051601f1981840301815282825280516020918201205f858152600390925291902055339082907fb87fb721c0a557bb8dff89a86796466931d82ba530a66a239263eb8735ade2e49061013f908790610171565b60405180910390a36101528160016101a6565b60015592915050565b5f82518060208501845e5f920191825250919050565b602081525f82518060208401528060208501604085015e5f604082850101526040601f19601f83011684010191505092915050565b808201808211156101c557634e487b7160e01b5f52601160045260245ffd5b92915050565b614090806101d85f395ff3fe60806040526004361061025f575f3560e01c80637f8d429e1161013f578063ab5a4e35116100b3578063d44e293c11610078578063d44e293c14610949578063d7cff98614610968578063e83bfb581461097b578063ebbdd2b0146109a9578063f6a94ecb146109c8578063fe92049d146109e7575f5ffd5b8063ab5a4e3514610899578063acae8f4e146108b8578063bc525652146108f3578063c081d8a31461091e578063d09cc57e1461087a575f5ffd5b8063924532fb11610104578063924532fb146106b957806395addb90146106ea5780639e63fa6a146107dc5780639f1025c61461082c578063a1130d0414610867578063a462fb7b1461087a575f5ffd5b80637f8d429e146105b657806382ffa9f7146105d5578063839df9451461060357806383bf46091461066b5780638d552d461461068a575f5ffd5b8063484c0714116101d6578063590158a71161019b578063590158a7146104be57806359245ff3146105275780636fa427421461053a57806370a0823114610565578063762c38fd1461059057806377f325df146105a3575f5ffd5b8063484c0714146103fc5780634dc266b41461042a5780634df6ca2a146104495780634e60f8831461046857806351577ea914610493575f5ffd5b80632417395c116102275780632417395c1461030b5780632518904c1461033957806326d6c97b1461038857806328828b1e146103b65780633ccfd60b146103d5578063484b93c4146103e9575f5ffd5b806306c3b67a146102635780631101a0fd14610297578063111ec138146102b85780631126a9dc146102cb57806312a203c3146102ec575b5f5ffd5b34801561026e575f5ffd5b5061028261027d36600461340f565b610a06565b60405190151581526020015b60405180910390f35b3480156102a2575f5ffd5b506102b66102b136600461356e565b610a1a565b005b6102b66102c636600461362c565b610d0e565b6102de6102d93660046136e6565b610f6a565b60405190815260200161028e565b3480156102f7575f5ffd5b506102de610306366004613773565b6113a3565b348015610316575f5ffd5b506102de61032536600461340f565b5f9081526004602052604090206003015490565b348015610344575f5ffd5b5061037061035336600461340f565b5f908152600460205260409020600101546001600160a01b031690565b6040516001600160a01b03909116815260200161028e565b348015610393575f5ffd5b506102de6103a236600461340f565b5f9081526004602052604090206006015490565b3480156103c1575f5ffd5b506102b66103d03660046137bd565b611578565b3480156103e0575f5ffd5b506102b6611816565b6102de6103f73660046138c3565b61188d565b348015610407575f5ffd5b506102de61041636600461340f565b5f9081526004602052604090206007015490565b348015610435575f5ffd5b506102b6610444366004613949565b6119ab565b348015610454575f5ffd5b506102b661046336600461340f565b611caa565b348015610473575f5ffd5b506102de61048236600461340f565b60036020525f908152604090205481565b34801561049e575f5ffd5b506102de6104ad36600461340f565b5f9081526004602052604090205490565b3480156104c9575f5ffd5b506105026104d836600461340f565b60056020525f90815260409020805460018201546002909201546001600160a01b03909116919083565b604080516001600160a01b03909416845260208401929092529082015260600161028e565b6102b661053536600461340f565b611cf7565b348015610545575f5ffd5b506102de610554366004613978565b60076020525f908152604090205481565b348015610570575f5ffd5b506102de61057f366004613978565b5f6020819052908152604090205481565b6102de61059e366004613991565b611e84565b6102b66105b1366004613a0e565b611fa1565b3480156105c1575f5ffd5b506102826105d036600461340f565b6121a6565b3480156105e0575f5ffd5b506102de6105ef36600461340f565b5f9081526004602052604090206005015490565b34801561060e575f5ffd5b5061064961061d36600461340f565b60066020525f90815260409020805460019091015463ffffffff821691640100000000900460ff169083565b6040805163ffffffff909416845291151560208401529082015260600161028e565b348015610676575f5ffd5b506102de610685366004613a37565b612201565b348015610695575f5ffd5b506102de6106a436600461340f565b5f908152600460208190526040909120015490565b3480156106c4575f5ffd5b506102826106d336600461340f565b5f9081526004602052604090206002015460ff1690565b3480156106f5575f5ffd5b5061077561070436600461340f565b600460208190525f91825260409091208054600182015460028301546003840154948401546005850154600686015460079096015494966001600160a01b0385169663ffffffff600160a01b8704811697600160c01b8804821697600160e01b90049091169560ff1694929391908b565b604080519b8c526001600160a01b03909a1660208c015263ffffffff988916998b019990995295871660608a015295909316608088015290151560a087015260c086015260e08501526101008401919091526101208301526101408201526101600161028e565b3480156107e7575f5ffd5b506108176107f636600461340f565b5f90815260046020526040902060010154600160a01b900463ffffffff1690565b60405163ffffffff909116815260200161028e565b348015610837575f5ffd5b5061081761084636600461340f565b5f90815260046020526040902060010154600160c01b900463ffffffff1690565b6102de610875366004613a70565b61229b565b348015610885575f5ffd5b506102de61089436600461340f565b6122b6565b3480156108a4575f5ffd5b506102de6108b336600461340f565b6122f4565b3480156108c3575f5ffd5b506108176108d236600461340f565b5f90815260046020526040902060010154600160e01b900463ffffffff1690565b3480156108fe575f5ffd5b506102de61090d36600461340f565b60026020525f908152604090205481565b348015610929575f5ffd5b506102de61093836600461340f565b60086020525f908152604090205481565b348015610954575f5ffd5b506102b6610963366004613ac1565b61241f565b6102b661097636600461362c565b612531565b348015610986575f5ffd5b5061028261099536600461340f565b60096020525f908152604090205460ff1681565b3480156109b4575f5ffd5b506102b66109c336600461340f565b61278a565b3480156109d3575f5ffd5b506102b66109e2366004613b15565b61288a565b3480156109f2575f5ffd5b506102b6610a01366004613b48565b612b02565b5f600119610a13836122b6565b1492915050565b84610a24816121a6565b610a495760405162461bcd60e51b8152600401610a4090613b7a565b60405180910390fd5b5f855111610ab25760405162461bcd60e51b815260206004820152603060248201527f6174206c65617374206f6e6520686973746f7279206861736820656e7472792060448201526f1b5d5cdd081899481c1c9bdd9a59195960821b6064820152608401610a40565b5f868152600560208181526040808420805460018201546002909201546004948590529286209485015494909301546001600160a01b039093169490939192905b8a51811015610c56575f610b6e848d8481518110610b1357610b13613bb1565b60200260200101518b8581518110610b2d57610b2d613bb1565b60200260200101518d8681518110610b4757610b47613bb1565b60200260200101518f8781518110610b6157610b61613bb1565b6020026020010151612c4f565b9050610b7a8686613bd9565b9450610bd78d84878a8f8781518110610b9557610b95613bb1565b60200260200101518f8881518110610baf57610baf613bb1565b60200260200101518f8981518110610bc957610bc9613bb1565b602002602001015188612d3a565b8098508196505050898281518110610bf157610bf1613bb1565b6020026020010151955060045f8e81526020019081526020015f20600601548614610c2e57610c21602887613c00565b610c2b9087613c13565b95505b8b8281518110610c4057610c40613bb1565b6020908102919091010151935050600101610af3565b8215610cb2576001600160a01b03861615610c7a57610c768c8786612e7a565b5f93505b5f8c815260056020526040902080546001600160a01b0319166001600160a01b03881617815560018101869055600201849055610ced565b610cc68c87610cc18888613bd9565b612e7a565b5f8c815260056020526040812080546001600160a01b031916815560018101829055600201555b50505f998a5260046020526040909920600501989098555050505050505050565b5f848152600460205260409020600101548490600160c01b900463ffffffff16610d4a5760405162461bcd60e51b8152600401610a4090613c26565b5f8181526004602052604090206002015460ff1615610d7b5760405162461bcd60e51b8152600401610a4090613c53565b5f81815260046020526040902060010154600160e01b900463ffffffff16801580610db157504263ffffffff168163ffffffff16115b610dcd5760405162461bcd60e51b8152600401610a4090613c9b565b5f82815260046020526040902060010154600160a01b900463ffffffff16801580610e0457504263ffffffff168163ffffffff1611155b610e205760405162461bcd60e51b8152600401610a4090613ce5565b865f3411610e405760405162461bcd60e51b8152600401610a4090613d1c565b5f8181526004602052604081206006015490819003610e8e575f82815260046020526040902060070154341015610e895760405162461bcd60e51b8152600401610a4090613d4b565b610eb8565b610e99816002613d82565b341015610eb85760405162461bcd60e51b8152600401610a4090613d99565b88878015610ef0575f82815260046020526040902060060154811015610ef05760405162461bcd60e51b8152600401610a4090613de3565b6001600160a01b038816610f465760405162461bcd60e51b815260206004820152601960248201527f616e737765726572206d757374206265206e6f6e2d7a65726f000000000000006044820152606401610a40565b610f538b8b8a345f612ef2565b610f5d8b8b612fc6565b5050505050505050505050565b5f610f7482610a06565b610fe65760405162461bcd60e51b815260206004820152603f60248201527f596f752063616e206f6e6c792072656f70656e207175657374696f6e7320746860448201527f6174207265736f6c76656420617320736574746c656420746f6f20736f6f6e006064820152608401610a40565b5f89868a604051602001610ffc93929190613e31565b60408051601f1981840301815291815281516020928301205f868152600490935291205490915081146110695760405162461bcd60e51b81526020600482015260156024820152740c6dedce8cadce840d0c2e6d040dad2e6dac2e8c6d605b1b6044820152606401610a40565b5f838152600460205260409020600101546001600160a01b038981169116146110ca5760405162461bcd60e51b81526020600482015260136024820152720c2e4c4d2e8e4c2e8dee440dad2e6dac2e8c6d606b1b6044820152606401610a40565b5f8381526004602052604090206001015463ffffffff888116600160c01b909204161461112c5760405162461bcd60e51b815260206004820152601060248201526f0e8d2dacadeeae840dad2e6dac2e8c6d60831b6044820152606401610a40565b5f8381526004602052604090206001015463ffffffff878116600160a01b90920416146111915760405162461bcd60e51b81526020600482015260136024820152720dee0cadcd2dccebee8e640dad2e6dac2e8c6d606b1b6044820152606401610a40565b5f8381526004602052604090206007015484146111e45760405162461bcd60e51b81526020600482015260116024820152700dad2dcbec4dedcc840dad2e6dac2e8c6d607b1b6044820152606401610a40565b5f8381526009602052604090205460ff161561125c5760405162461bcd60e51b815260206004820152603160248201527f5175657374696f6e20697320616c72656164792072656f70656e696e67206120604482015270383932bb34b7bab99038bab2b9ba34b7b760791b6064820152608401610a40565b5f838152600860205260409020548381156112e95761127a82610a06565b6112d15760405162461bcd60e51b815260206004820152602260248201527f5175657374696f6e2068617320616c7265616479206265656e2072656f70656e604482015261195960f21b6064820152608401610a40565b505f818152600960205260409020805460ff19169055805b5f6112f98d8d8d8d8d8d8d61188d565b5f87815260086020908152604080832084905583835260098252808320805460ff191660011790556004909152808220600390810154868452919092209091015491925061134691613bd9565b5f828152600460205260408082206003908101939093558482528082209092018190559051879183917f32e7d5617fb1be6bd0e7c3974d438d4514c4cf349e9330691d8abf6f6fd431219190a39c9b505050505050505050505050565b5f856113ae816121a6565b6113ca5760405162461bcd60e51b8152600401610a4090613b7a565b5f8781526004602052604090205486146114265760405162461bcd60e51b815260206004820152601760248201527f636f6e74656e742068617368206d757374206d617463680000000000000000006044820152606401610a40565b5f878152600460205260409020600101546001600160a01b038681169116146114895760405162461bcd60e51b81526020600482015260156024820152740c2e4c4d2e8e4c2e8dee440daeae6e840dac2e8c6d605b1b6044820152606401610a40565b5f8781526004602052604090206001015463ffffffff600160c01b909104811690851611156114fa5760405162461bcd60e51b815260206004820152601b60248201527f74696d656f7574206d757374206265206c6f6e6720656e6f75676800000000006044820152606401610a40565b5f8781526004602052604090206006015483111561155a5760405162461bcd60e51b815260206004820152601860248201527f626f6e64206d757374206265206869676820656e6f75676800000000000000006044820152606401610a40565b5f878152600460208190526040909120015491505095945050505050565b5f805b8751821015611804575f88838151811061159757611597613bb1565b602002602001015190505f8884815181106115b4576115b4613bb1565b602002602001015190505f816001600160401b038111156115d7576115d7613426565b604051908082528060200260200182016040528015611600578160200160208202803683370190505b5090505f826001600160401b0381111561161c5761161c613426565b604051908082528060200260200182016040528015611645578160200160208202803683370190505b5090505f836001600160401b0381111561166157611661613426565b60405190808252806020026020018201604052801561168a578160200160208202803683370190505b5090505f846001600160401b038111156116a6576116a6613426565b6040519080825280602002602001820160405280156116cf578160200160208202803683370190505b5090505f5b858110156117e4578c88815181106116ee576116ee613bb1565b602002602001015185828151811061170857611708613bb1565b6020026020010181815250508b888151811061172657611726613bb1565b602002602001015184828151811061174057611740613bb1565b60200260200101906001600160a01b031690816001600160a01b0316815250508a888151811061177257611772613bb1565b602002602001015183828151811061178c5761178c613bb1565b6020026020010181815250508988815181106117aa576117aa613bb1565b60200260200101518282815181106117c4576117c4613bb1565b6020908102919091010152876117d981613e56565b9850506001016116d4565b6117f18786868686610a1a565b50506001909601955061157b9350505050565b61180c611816565b5050505050505050565b335f81815260208190526040808220805490839055905190929183156108fc02918491818181858888f19350505050158015611854573d5f5f3e3d5ffd5b5060405181815233907f4ce7033d118120e254016dccf195288400b28fc8936425acd5f17ce2df3ab7089060200160405180910390a250565b5f878152600260205260408120546118dd5760405162461bcd60e51b81526020600482015260136024820152721d195b5c1b185d19481b5d5cdd08195e1a5cdd606a1b6044820152606401610a40565b5f8885896040516020016118f393929190613e31565b6040516020818303038152906040528051906020012090505f8188888630338a6040516020016119299796959493929190613e6e565b60405160208183030381529060405280519060200120905081336001600160a01b0316827ffe2dac156a3890636ce13f65f4fdf41dcaee11526e4a5374531572d92194796c8d8d8d8d8d8d426040516119889796959493929190613ef5565b60405180910390a461199e81838a8a8a8961302e565b9998505050505050505050565b5f848152600460205260409020600101548490600160c01b900463ffffffff166119e75760405162461bcd60e51b8152600401610a4090613c26565b5f81815260046020526040902060010154600160e01b900463ffffffff16801580611a1d57504263ffffffff168163ffffffff16115b611a7b5760405162461bcd60e51b815260206004820152602960248201527f66696e616c697a6174696f6e206465616c696e65206d757374206e6f742068616044820152681d99481c185cdcd95960ba1b6064820152608401610a40565b5f82815260046020526040902060010154600160a01b900463ffffffff16801580611ab257504263ffffffff168163ffffffff1611155b611ace5760405162461bcd60e51b8152600401610a4090613ce5565b604080516020808201899052818301889052825180830384018152606083018452805190820120608083018b905260a0830181905260c08084018990528451808503909101815260e090930184528251928201929092205f818152600690925292902054909190640100000000900460ff1615611ba05760405162461bcd60e51b815260206004820152602a60248201527f636f6d6d69746d656e74206d757374206e6f742068617665206265656e2072656044820152691d99585b1959081e595d60b21b6064820152608401610a40565b5f8181526006602052604090205463ffffffff428116911611611c115760405162461bcd60e51b8152602060048201526024808201527f72657665616c20646561646c696e65206d757374206e6f7420686176652070616044820152631cdcd95960e21b6064820152608401610a40565b5f818152600660208181526040808420600181018d9055805464ff0000000019166401000000001790558c8452600490915290912001548603611c5857611c588989612fc6565b6040805189815260208101899052908101879052829033908b907fa7b2d313bc7a062e30b2c3b811aa4c9faf09755a6b4ea3bf42deff920944332f9060600160405180910390a4505050505050505050565b335f81815260076020908152604091829020849055815192835282018390527fdca703d022171824d3d639b33c1525fd2338120b4cfb89507c0b59596893acda910160405180910390a150565b5f818152600460205260409020600101548190600160c01b900463ffffffff16611d335760405162461bcd60e51b8152600401610a4090613c26565b5f8181526004602052604090206002015460ff1615611d645760405162461bcd60e51b8152600401610a4090613c53565b5f81815260046020526040902060010154600160e01b900463ffffffff16801580611d9a57504263ffffffff168163ffffffff16115b611db65760405162461bcd60e51b8152600401610a4090613c9b565b5f82815260046020526040902060010154600160a01b900463ffffffff16801580611ded57504263ffffffff168163ffffffff1611155b611e095760405162461bcd60e51b8152600401610a4090613ce5565b5f84815260046020526040902060030154611e25903490613bd9565b5f858152600460205260409081902060030182905551339186917f54d68405b79f2aa4fd4e8db7b67844ad254cf8f208aac476c2894134a9deab6691611e7691349190918252602082015260400190565b60405180910390a350505050565b5f86815260026020526040812054611ed45760405162461bcd60e51b81526020600482015260136024820152721d195b5c1b185d19481b5d5cdd08195e1a5cdd606a1b6044820152606401610a40565b5f878488604051602001611eea93929190613e31565b6040516020818303038152906040528051906020012090505f8187875f303389604051602001611f209796959493929190613e6e565b60405160208183030381529060405280519060200120905081336001600160a01b0316827ffe2dac156a3890636ce13f65f4fdf41dcaee11526e4a5374531572d92194796c8c8c8c8c8c8c42604051611f7f9796959493929190613ef5565b60405180910390a4611f9581838989895f61302e565b98975050505050505050565b5f838152600460205260409020600101548390600160c01b900463ffffffff16611fdd5760405162461bcd60e51b8152600401610a4090613c26565b5f8181526004602052604090206002015460ff161561200e5760405162461bcd60e51b8152600401610a4090613c53565b5f81815260046020526040902060010154600160e01b900463ffffffff1680158061204457504263ffffffff168163ffffffff16115b6120605760405162461bcd60e51b8152600401610a4090613c9b565b5f82815260046020526040902060010154600160a01b900463ffffffff1680158061209757504263ffffffff168163ffffffff1611155b6120b35760405162461bcd60e51b8152600401610a4090613ce5565b855f34116120d35760405162461bcd60e51b8152600401610a4090613d1c565b5f8181526004602052604081206006015490819003612121575f8281526004602052604090206007015434101561211c5760405162461bcd60e51b8152600401610a4090613d4b565b61214b565b61212c816002613d82565b34101561214b5760405162461bcd60e51b8152600401610a4090613d99565b87868015612183575f828152600460205260409020600601548110156121835760405162461bcd60e51b8152600401610a4090613de3565b6121908a8a33345f612ef2565b61219a8a8a612fc6565b50505050505050505050565b5f8181526004602052604081206001810154600290910154600160e01b90910463ffffffff169060ff161580156121e2575063ffffffff811615155b80156121fa57504263ffffffff168163ffffffff1611155b9392505050565b6001545f8181526002602090815260408083204390555191929161222791859101613f44565b60408051601f1981840301815282825280516020918201205f858152600390925291902055339082907fb87fb721c0a557bb8dff89a86796466931d82ba530a66a239263eb8735ade2e49061227d908790613f4f565b60405180910390a3612290816001613bd9565b60015590505b919050565b5f5f6122a688612201565b9050611f95818888888888611e84565b5f816122c1816121a6565b6122dd5760405162461bcd60e51b8152600401610a4090613b7a565b50505f908152600460208190526040909120015490565b5f5f6122ff836122b6565b905060028101612419575f838152600860205260409020548061238a5760405162461bcd60e51b815260206004820152603760248201527f5175657374696f6e2077617320736574746c656420746f6f20736f6f6e20616e60448201527f6420686173206e6f74206265656e2072656f70656e65640000000000000000006064820152608401610a40565b612393816122b6565b9150600282016124175760405162461bcd60e51b815260206004820152604360248201527f5175657374696f6e207265706c6163656d656e742077617320736574746c656460448201527f20746f6f20736f6f6e20616e6420686173206e6f74206265656e2072656f70656064820152621b995960ea1b608482015260a401610a40565b505b92915050565b5f868152600460205260408120600581015460069091015461244691908690869086612c4f565b90505f81801561246c57505f84815260066020526040902054640100000000900460ff16155b15612503575f8481526006602052604090205463ffffffff4281169116106124fc5760405162461bcd60e51b815260206004820152603760248201527f596f75206d757374207761697420666f72207468652072657665616c2064656160448201527f646c696e65206265666f72652066696e616c697a696e670000000000000000006064820152608401610a40565b5084612526565b5f888152600460208190526040909120015487146125215785612523565b825b90505b61180c888883612b02565b5f848152600460205260409020600101548490600160c01b900463ffffffff1661256d5760405162461bcd60e51b8152600401610a4090613c26565b5f8181526004602052604090206002015460ff161561259e5760405162461bcd60e51b8152600401610a4090613c53565b5f81815260046020526040902060010154600160e01b900463ffffffff168015806125d457504263ffffffff168163ffffffff16115b6125f05760405162461bcd60e51b8152600401610a4090613c9b565b5f82815260046020526040902060010154600160a01b900463ffffffff1680158061262757504263ffffffff168163ffffffff1611155b6126435760405162461bcd60e51b8152600401610a4090613ce5565b865f34116126635760405162461bcd60e51b8152600401610a4090613d1c565b5f81815260046020526040812060060154908190036126b1575f828152600460205260409020600701543410156126ac5760405162461bcd60e51b8152600401610a4090613d4b565b6126db565b6126bc816002613d82565b3410156126db5760405162461bcd60e51b8152600401610a4090613d99565b88878015612713575f828152600460205260409020600601548110156127135760405162461bcd60e51b8152600401610a4090613de3565b60408051602081018d90529081018b90523460608201525f9060800160408051601f19818403018152919052805160209091012090505f6001600160a01b038a161561275f5789612761565b335b905061276d8d83613344565b61277b8d8383346001612ef2565b50505050505050505050505050565b5f8181526004602052604090206001015481906001600160a01b031633146127c45760405162461bcd60e51b8152600401610a4090613f61565b5f82815260046020526040902060020154829060ff166127f65760405162461bcd60e51b8152600401610a4090613f98565b5f83815260046020526040902060028101805460ff191690556001015461282a90600160c01b900463ffffffff1642613fdc565b5f84815260046020526040808220600101805463ffffffff94909416600160e01b026001600160e01b0390941693909317909255905184917f71bf7c2b9df0b8818e7eb6746a5bf69699ebbab041f3795f9ed58e469afa9a3a91a2505050565b5f8381526004602052604090206001015483906001600160a01b031633146128c45760405162461bcd60e51b8152600401610a4090613f61565b5f848152600460205260409020600101548490600160c01b900463ffffffff166129005760405162461bcd60e51b8152600401610a4090613c26565b5f8181526004602052604090206002015460ff16156129315760405162461bcd60e51b8152600401610a4090613c53565b5f81815260046020526040902060010154600160e01b900463ffffffff1680158061296757504263ffffffff168163ffffffff16115b6129835760405162461bcd60e51b8152600401610a4090613c9b565b5f82815260046020526040902060010154600160a01b900463ffffffff168015806129ba57504263ffffffff168163ffffffff1611155b6129d65760405162461bcd60e51b8152600401610a4090613ce5565b86858015612a0e575f82815260046020526040902060060154811015612a0e5760405162461bcd60e51b8152600401610a4090613de3565b5f89815260046020526040902060010154600160e01b900463ffffffff16612aa95760405162461bcd60e51b815260206004820152604260248201527f5175657374696f6e206d75737420616c7265616479206861766520616e20616e60448201527f73776572207768656e206172626974726174696f6e2069732072657175657374606482015261195960f21b608482015260a401610a40565b5f89815260046020526040808220600201805460ff19166001179055516001600160a01b038a16918b917f75d7939999bc902187c4aed400872883e445145f1983539166f783fa040b47629190a3505050505050505050565b5f8381526004602052604090206001015483906001600160a01b03163314612b3c5760405162461bcd60e51b8152600401610a4090613f61565b5f84815260046020526040902060020154849060ff16612b6e5760405162461bcd60e51b8152600401610a4090613f98565b6001600160a01b038316612bc45760405162461bcd60e51b815260206004820152601960248201527f616e737765726572206d7573742062652070726f7669646564000000000000006044820152606401610a40565b604051849086907f18d760beffe3717270cd90d9d920ec1a48c194e9ad7bba23eb1c92d3eb974f97905f90a35f858152600460205260408120600201805460ff19169055612c189086908690869080612ef2565b5050505f9182526004602081905260409092209182015560010180546001600160e01b0316600160e01b4263ffffffff1602179055565b5f848484846001604051602001612c6a959493929190613ff8565b604051602081830303815290604052805190602001208603612c8e57506001612d31565b848484845f604051602001612ca7959493929190613ff8565b604051602081830303815290604052805190602001208603612cca57505f612d31565b60405162461bcd60e51b815260206004820152603660248201527f486973746f727920696e7075742070726f766964656420646964206e6f74206d6044820152750c2e8c6d040e8d0ca40caf0e0cac6e8cac840d0c2e6d60531b6064820152608401610a40565b95945050505050565b5f5f8215612daf575f848152600660205260409020548490640100000000900460ff16612d88575f908152600660205260408120805464ffffffffff19168155600101555086905085612e6d565b5f908152600660205260408120600181018054825464ffffffffff19169092559190915593505b888403612e67576001600160a01b038716612e24578596506001195f1b8914158015612dea57505f8a81526004602052604090206003015415155b15612e1f575f8a815260046020526040902060030154612e0d908b908990612e7a565b5f8a8152600460205260408120600301555b612e67565b866001600160a01b0316866001600160a01b031614612e67575f85891015612e4c5788612e4e565b855b9050612e5f8b89610cc1848d613c13565b869750809850505b50869050855b9850989650505050505050565b6001600160a01b0382165f90815260208190526040902054612e9d908290613bd9565b6001600160a01b0383165f81815260208181526040918290209390935551838152909185917f9c121aff33b50c1a53fef034ebec5f83da2d5a5187048f9c76c397ba27c1a1a6910160405180910390a3505050565b5f858152600460209081526040808320600501549051612f1a92889187918991889101613ff8565b6040516020818303038152906040528051906020012090505f831115612f4e575f8681526004602052604090206006018390555b5f86815260046020908152604091829020600501839055815187815290810183905290810184905242606082015282151560808201526001600160a01b0385169087907fe47ca4ebbbc2990134d1168821f38c5e177f3d5ee564bffeadeaa351905e62219060a00160405180910390a3505050505050565b5f82815260046020819052604090912090810182905560010154612ff790600160c01b900463ffffffff1642613fdc565b5f92835260046020526040909220600101805463ffffffff93909316600160e01b026001600160e01b039093169290921790915550565b5f868152600460205260409020600101548690600160c01b900463ffffffff161561309b5760405162461bcd60e51b815260206004820152601760248201527f7175657374696f6e206d757374206e6f742065786973740000000000000000006044820152606401610a40565b5f8463ffffffff16116130f05760405162461bcd60e51b815260206004820152601860248201527f74696d656f7574206d75737420626520706f73697469766500000000000000006044820152606401610a40565b6301e133808463ffffffff16106131545760405162461bcd60e51b815260206004820152602260248201527f74696d656f7574206d757374206265206c657373207468616e20333635206461604482015261797360f01b6064820152608401610a40565b346001600160a01b038616158015906131765750336001600160a01b03871614155b15613239576001600160a01b0386165f90815260076020526040902054808210156131ef5760405162461bcd60e51b8152602060048201526024808201527f4554482070726f7669646564206d75737420636f766572207175657374696f6e6044820152632066656560e01b6064820152608401610a40565b6131f98183613c13565b6001600160a01b0388165f9081526020819052604090205490925061321f908290613bd9565b6001600160a01b0388165f90815260208190526040902055505b5f888152600460205260409020878155600101805463ffffffff878116600160c01b0263ffffffff60c01b19918816600160a01b026001600160c01b03199093166001600160a01b038b1617929092171617905580156132e5575f88815260046020908152604091829020600301839055815183815290810183905233918a917f54d68405b79f2aa4fd4e8db7b67844ad254cf8f208aac476c2894134a9deab66910160405180910390a35b821561180c575f88815260046020526040908190206007018490555188907f9641ca9d53af3bead658ffcc6c7d8c35e7dae9938367bd8eb45bee35d5c62504906133329086815260200190565b60405180910390a25050505050505050565b5f8181526006602052604090205463ffffffff16156133af5760405162461bcd60e51b815260206004820152602160248201527f636f6d6d69746d656e74206d757374206e6f7420616c726561647920657869736044820152601d60fa1b6064820152608401610a40565b5f828152600460205260408120600101546133d990600890600160c01b900463ffffffff16614033565b90506133e58142613fdc565b5f92835260066020526040909220805463ffffffff191663ffffffff909316929092179091555050565b5f6020828403121561341f575f5ffd5b5035919050565b634e487b7160e01b5f52604160045260245ffd5b604051601f8201601f191681016001600160401b038111828210171561346257613462613426565b604052919050565b5f6001600160401b0382111561348257613482613426565b5060051b60200190565b5f82601f83011261349b575f5ffd5b81356134ae6134a98261346a565b61343a565b8082825260208201915060208360051b8601019250858311156134cf575f5ffd5b602085015b838110156134ec5780358352602092830192016134d4565b5095945050505050565b80356001600160a01b0381168114612296575f5ffd5b5f82601f83011261351b575f5ffd5b81356135296134a98261346a565b8082825260208201915060208360051b86010192508583111561354a575f5ffd5b602085015b838110156134ec57613560816134f6565b83526020928301920161354f565b5f5f5f5f5f60a08688031215613582575f5ffd5b8535945060208601356001600160401b0381111561359e575f5ffd5b6135aa8882890161348c565b94505060408601356001600160401b038111156135c5575f5ffd5b6135d18882890161350c565b93505060608601356001600160401b038111156135ec575f5ffd5b6135f88882890161348c565b92505060808601356001600160401b03811115613613575f5ffd5b61361f8882890161348c565b9150509295509295909350565b5f5f5f5f6080858703121561363f575f5ffd5b84359350602085013592506040850135915061365d606086016134f6565b905092959194509250565b5f82601f830112613677575f5ffd5b81356001600160401b0381111561369057613690613426565b6136a3601f8201601f191660200161343a565b8181528460208386010111156136b7575f5ffd5b816020850160208301375f918101602001919091529392505050565b803563ffffffff81168114612296575f5ffd5b5f5f5f5f5f5f5f5f610100898b0312156136fe575f5ffd5b8835975060208901356001600160401b0381111561371a575f5ffd5b6137268b828c01613668565b97505061373560408a016134f6565b955061374360608a016136d3565b945061375160808a016136d3565b979a969950949793969560a0850135955060c08501359460e001359350915050565b5f5f5f5f5f60a08688031215613787575f5ffd5b853594506020860135935061379e604087016134f6565b92506137ac606087016136d3565b949793965091946080013592915050565b5f5f5f5f5f5f60c087890312156137d2575f5ffd5b86356001600160401b038111156137e7575f5ffd5b6137f389828a0161348c565b96505060208701356001600160401b0381111561380e575f5ffd5b61381a89828a0161348c565b95505060408701356001600160401b03811115613835575f5ffd5b61384189828a0161348c565b94505060608701356001600160401b0381111561385c575f5ffd5b61386889828a0161350c565b93505060808701356001600160401b03811115613883575f5ffd5b61388f89828a0161348c565b92505060a08701356001600160401b038111156138aa575f5ffd5b6138b689828a0161348c565b9150509295509295509295565b5f5f5f5f5f5f5f60e0888a0312156138d9575f5ffd5b8735965060208801356001600160401b038111156138f5575f5ffd5b6139018a828b01613668565b965050613910604089016134f6565b945061391e606089016136d3565b935061392c608089016136d3565b9699959850939692959460a0840135945060c09093013592915050565b5f5f5f5f6080858703121561395c575f5ffd5b5050823594602084013594506040840135936060013592509050565b5f60208284031215613988575f5ffd5b6121fa826134f6565b5f5f5f5f5f5f60c087890312156139a6575f5ffd5b8635955060208701356001600160401b038111156139c2575f5ffd5b6139ce89828a01613668565b9550506139dd604088016134f6565b93506139eb606088016136d3565b92506139f9608088016136d3565b9598949750929591949360a090920135925050565b5f5f5f60608486031215613a20575f5ffd5b505081359360208301359350604090920135919050565b5f60208284031215613a47575f5ffd5b81356001600160401b03811115613a5c575f5ffd5b613a6884828501613668565b949350505050565b5f5f5f5f5f5f60c08789031215613a85575f5ffd5b86356001600160401b03811115613a9a575f5ffd5b613aa689828a01613668565b96505060208701356001600160401b038111156139c2575f5ffd5b5f5f5f5f5f5f60c08789031215613ad6575f5ffd5b8635955060208701359450613aed604088016134f6565b93506060870135925060808701359150613b0960a088016134f6565b90509295509295509295565b5f5f5f60608486031215613b27575f5ffd5b83359250613b37602085016134f6565b929592945050506040919091013590565b5f5f5f60608486031215613b5a575f5ffd5b8335925060208401359150613b71604085016134f6565b90509250925092565b6020808252601a908201527f7175657374696f6e206d7573742062652066696e616c697a6564000000000000604082015260600190565b634e487b7160e01b5f52603260045260245ffd5b634e487b7160e01b5f52601160045260245ffd5b8082018082111561241957612419613bc5565b634e487b7160e01b5f52601260045260245ffd5b5f82613c0e57613c0e613bec565b500490565b8181038181111561241957612419613bc5565b6020808252601390820152721c5d595cdd1a5bdb881b5d5cdd08195e1a5cdd606a1b604082015260600190565b60208082526028908201527f7175657374696f6e206d757374206e6f742062652070656e64696e672061726260408201526734ba3930ba34b7b760c11b606082015260800190565b6020808252602a908201527f66696e616c697a6174696f6e20646561646c696e65206d757374206e6f742068604082015269185d99481c185cdcd95960b21b606082015260800190565b6020808252601d908201527f6f70656e696e672064617465206d757374206861766520706173736564000000604082015260600190565b602080825260159082015274626f6e64206d75737420626520706f73697469766560581b604082015260600190565b6020808252601c908201527f626f6e64206d7573742065786365656420746865206d696e696d756d00000000604082015260600190565b808202811582820484141761241957612419613bc5565b6020808252602a908201527f626f6e64206d75737420626520646f75626c65206174206c65617374207072656040820152691d9a5bdd5cc8189bdb9960b21b606082015260800190565b6020808252601d908201527f626f6e64206d75737420657863656564206d61785f70726576696f7573000000604082015260600190565b5f81518060208401855e5f93019283525090919050565b83815260e083901b6001600160e01b03191660208201525f612d316024830184613e1a565b5f60018201613e6757613e67613bc5565b5060010190565b968752606095861b6bffffffffffffffffffffffff19908116602089015260e09590951b6001600160e01b0319166034880152603887019390935290841b8316605886015290921b16606c830152608082015260a00190565b5f81518084528060208401602086015e5f602082860101526020601f19601f83011685010191505092915050565b87815260e060208201525f613f0d60e0830189613ec7565b6001600160a01b039790971660408301525063ffffffff948516606082015292909316608083015260a082015260c0015292915050565b5f6121fa8284613e1a565b602081525f6121fa6020830184613ec7565b6020808252601d908201527f6d73672e73656e646572206d7573742062652061726269747261746f72000000604082015260600190565b60208082526024908201527f7175657374696f6e206d7573742062652070656e64696e6720617262697472616040820152633a34b7b760e11b606082015260800190565b63ffffffff818116838216019081111561241957612419613bc5565b94855260208501939093526040840191909152606090811b6bffffffffffffffffffffffff191690830152151560f81b607482015260750190565b5f63ffffffff83168061404857614048613bec565b8063ffffffff8416049150509291505056fea264697066735822122042b8793a2099a0686688237a82d9e328f50dc3fafd6bcb5d4f018ef013e13b5564736f6c634300081c00337b227469746c65223a20222573222c202274797065223a20226d756c7469706c652d73656c656374222c20226f7574636f6d6573223a205b25735d2c202263617465676f7279223a20222573222c20226c616e67223a20222573227d7b227469746c65223a20222573222c202274797065223a2022626f6f6c222c202263617465676f7279223a20222573222c20226c616e67223a20222573227d7b227469746c65223a20222573222c202274797065223a20226461746574696d65222c202263617465676f7279223a20222573222c20226c616e67223a20222573227d7b227469746c65223a20222573222c202274797065223a202273696e676c652d73656c656374222c20226f7574636f6d6573223a205b25735d2c202263617465676f7279223a20222573222c20226c616e67223a20222573227d7b227469746c65223a20222573222c202274797065223a202275696e74222c2022646563696d616c73223a2031382c202263617465676f7279223a20222573222c20226c616e67223a20222573227d","linkReferences":{}},"methodIdentifiers":{"arbitrator_question_fees(address)":"6fa42742","askQuestion(uint256,string,address,uint32,uint32,uint256)":"762c38fd","askQuestionWithMinBond(uint256,string,address,uint32,uint32,uint256,uint256)":"484b93c4","assignWinnerAndSubmitAnswerByArbitrator(bytes32,bytes32,address,bytes32,bytes32,address)":"d44e293c","balanceOf(address)":"70a08231","cancelArbitration(bytes32)":"ebbdd2b0","claimMultipleAndWithdrawBalance(bytes32[],uint256[],bytes32[],address[],uint256[],bytes32[])":"28828b1e","claimWinnings(bytes32,bytes32[],address[],uint256[],bytes32[])":"1101a0fd","commitments(bytes32)":"839df945","createTemplate(string)":"83bf4609","createTemplateAndAskQuestion(string,string,address,uint32,uint32,uint256)":"a1130d04","fundAnswerBounty(bytes32)":"59245ff3","getArbitrator(bytes32)":"2518904c","getBestAnswer(bytes32)":"8d552d46","getBond(bytes32)":"26d6c97b","getBounty(bytes32)":"2417395c","getContentHash(bytes32)":"51577ea9","getFinalAnswer(bytes32)":"a462fb7b","getFinalAnswerIfMatches(bytes32,bytes32,address,uint32,uint256)":"12a203c3","getFinalizeTS(bytes32)":"acae8f4e","getHistoryHash(bytes32)":"82ffa9f7","getMinBond(bytes32)":"484c0714","getOpeningTS(bytes32)":"9e63fa6a","getTimeout(bytes32)":"9f1025c6","isFinalized(bytes32)":"7f8d429e","isPendingArbitration(bytes32)":"924532fb","isSettledTooSoon(bytes32)":"06c3b67a","notifyOfArbitrationRequest(bytes32,address,uint256)":"f6a94ecb","question_claims(bytes32)":"590158a7","questions(bytes32)":"95addb90","reopenQuestion(uint256,string,address,uint32,uint32,uint256,uint256,bytes32)":"1126a9dc","reopened_questions(bytes32)":"c081d8a3","reopener_questions(bytes32)":"e83bfb58","resultFor(bytes32)":"d09cc57e","resultForOnceSettled(bytes32)":"ab5a4e35","setQuestionFee(uint256)":"4df6ca2a","submitAnswer(bytes32,bytes32,uint256)":"77f325df","submitAnswerByArbitrator(bytes32,bytes32,address)":"fe92049d","submitAnswerCommitment(bytes32,bytes32,uint256,address)":"d7cff986","submitAnswerFor(bytes32,bytes32,uint256,address)":"111ec138","submitAnswerReveal(bytes32,bytes32,uint256,uint256)":"4dc266b4","template_hashes(uint256)":"4e60f883","templates(uint256)":"bc525652","withdraw()":"3ccfd60b"},"id":23}